{
  "_format": "hh-sol-artifact-1",
  "contractName": "ElectoralContract",
  "sourceName": "contracts/ElectoralContract.sol",
  "abi": [
    {
      "inputs": [
        {
          "internalType": "string",
          "name": "candidateName",
          "type": "string"
        }
      ],
      "name": "addCandidate",
      "outputs": [],
      "stateMutability": "nonpayable",
      "type": "function"
    },
    {
      "inputs": [
        {
          "internalType": "string",
          "name": "voterName",
          "type": "string"
        },
        {
          "internalType": "string",
          "name": "voterPassword",
          "type": "string"
        }
      ],
      "name": "addVoter",
      "outputs": [],
      "stateMutability": "nonpayable",
      "type": "function"
    },
    {
      "inputs": [
        {
          "internalType": "uint256",
          "name": "voterId",
          "type": "uint256"
        },
        {
          "internalType": "string",
          "name": "_password",
          "type": "string"
        }
      ],
      "name": "login",
      "outputs": [
        {
          "internalType": "bool",
          "name": "",
          "type": "bool"
        }
      ],
      "stateMutability": "nonpayable",
      "type": "function"
    },
    {
      "inputs": [
        {
          "internalType": "uint256",
          "name": "voterId",
          "type": "uint256"
        }
      ],
      "name": "logout",
      "outputs": [],
      "stateMutability": "nonpayable",
      "type": "function"
    },
    {
      "inputs": [
        {
          "internalType": "string[]",
          "name": "_candidateNames",
          "type": "string[]"
        },
        {
          "internalType": "string[]",
          "name": "_voterNames",
          "type": "string[]"
        },
        {
          "internalType": "string[]",
          "name": "_password",
          "type": "string[]"
        }
      ],
      "stateMutability": "nonpayable",
      "type": "constructor"
    },
    {
      "inputs": [
        {
          "internalType": "uint256",
          "name": "voterId",
          "type": "uint256"
        },
        {
          "internalType": "uint256",
          "name": "candidateId",
          "type": "uint256"
        },
        {
          "internalType": "uint256",
          "name": "timestamp",
          "type": "uint256"
        }
      ],
      "name": "vote",
      "outputs": [],
      "stateMutability": "nonpayable",
      "type": "function"
    },
    {
      "inputs": [],
      "name": "getCandidates",
      "outputs": [
        {
          "internalType": "string[]",
          "name": "",
          "type": "string[]"
        }
      ],
      "stateMutability": "view",
      "type": "function"
    },
    {
      "inputs": [],
      "name": "getResult",
      "outputs": [
        {
          "components": [
            {
              "internalType": "string",
              "name": "candidateName",
              "type": "string"
            },
            {
              "internalType": "uint256",
              "name": "voteCount",
              "type": "uint256"
            }
          ],
          "internalType": "struct ElectoralContract.Candidate[]",
          "name": "",
          "type": "tuple[]"
        }
      ],
      "stateMutability": "view",
      "type": "function"
    },
    {
      "inputs": [],
      "name": "getVoters",
      "outputs": [
        {
          "internalType": "string[]",
          "name": "",
          "type": "string[]"
        }
      ],
      "stateMutability": "view",
      "type": "function"
    },
    {
      "inputs": [],
      "name": "getVotersDetailed",
      "outputs": [
        {
          "components": [
            {
              "internalType": "string",
              "name": "voterName",
              "type": "string"
            },
            {
              "internalType": "bool",
              "name": "hasVoted",
              "type": "bool"
            },
            {
              "internalType": "bool",
              "name": "isLoggedIn",
              "type": "bool"
            },
            {
              "internalType": "string",
              "name": "voterPassword",
              "type": "string"
            },
            {
              "internalType": "address",
              "name": "nodeAddress",
              "type": "address"
            },
            {
              "internalType": "uint256",
              "name": "timestamp",
              "type": "uint256"
            }
          ],
          "internalType": "struct ElectoralContract.Voter[]",
          "name": "",
          "type": "tuple[]"
        }
      ],
      "stateMutability": "view",
      "type": "function"
    }
  ],
  "bytecode": "0x608060405234801561001057600080fd5b50610e60806100206000396000f3fe608060405234801561001057600080fd5b50600436106100625760003560e01c806306a49fce14610067578063462e91ec14610085578063aca84892146100a1578063b384abef146100bd578063cdd72253146100d9578063de292789146100f7575b600080fd5b61006f610115565b60405161007c919061074c565b60405180910390f35b61009f600480360381019061009a91906108b7565b6101ee565b005b6100bb60048036038101906100b691906108b7565b610289565b005b6100d760048036038101906100d29190610936565b61033c565b005b6100e1610426565b6040516100ee919061074c565b60405180910390f35b6100ff6104ff565b60405161010c9190610a84565b60405180910390f35b60606003805480602002602001604051908101604052809291908181526020016000905b828210156101e557838290600052602060002001805461015890610ad5565b80601f016020809104026020016040519081016040528092919081815260200182805461018490610ad5565b80156101d15780601f106101a6576101008083540402835291602001916101d1565b820191906000526020600020905b8154815290600101906020018083116101b457829003601f168201915b505050505081526020019060010190610139565b50505050905090565b600260405180604001604052808381526020016000815250908060018154018082558091505060019003906000526020600020906002020160009091909190915060008201518160000190816102449190610cb2565b506020820151816001015550506003819080600181540180825580915050600190039060005260206000200160009091909190915090816102859190610cb2565b5050565b6000604051806040016040528083815260200160001515815250908060018154018082558091505060019003906000526020600020906002020160009091909190915060008201518160000190816102e19190610cb2565b5060208201518160010160006101000a81548160ff02191690831515021790555050506001819080600181540180825580915050600190039060005260206000200160009091909190915090816103389190610cb2565b5050565b600082815481106103505761034f610d84565b5b906000526020600020906002020160010160009054906101000a900460ff161561037957600080fd5b60005b6002805490508110156104215781810361040e57600281815481106103a4576103a3610d84565b5b906000526020600020906002020160010160008154809291906103c690610de2565b91905055506001600084815481106103e1576103e0610d84565b5b906000526020600020906002020160010160006101000a81548160ff021916908315150217905550610421565b808061041990610de2565b91505061037c565b505050565b60606001805480602002602001604051908101604052809291908181526020016000905b828210156104f657838290600052602060002001805461046990610ad5565b80601f016020809104026020016040519081016040528092919081815260200182805461049590610ad5565b80156104e25780601f106104b7576101008083540402835291602001916104e2565b820191906000526020600020905b8154815290600101906020018083116104c557829003601f168201915b50505050508152602001906001019061044a565b50505050905090565b60606002805480602002602001604051908101604052809291908181526020016000905b828210156105f1578382906000526020600020906002020160405180604001604052908160008201805461055690610ad5565b80601f016020809104026020016040519081016040528092919081815260200182805461058290610ad5565b80156105cf5780601f106105a4576101008083540402835291602001916105cf565b820191906000526020600020905b8154815290600101906020018083116105b257829003601f168201915b5050505050815260200160018201548152505081526020019060010190610523565b50505050905090565b600081519050919050565b600082825260208201905092915050565b6000819050602082019050919050565b600081519050919050565b600082825260208201905092915050565b60005b83811015610660578082015181840152602081019050610645565b60008484015250505050565b6000601f19601f8301169050919050565b600061068882610626565b6106928185610631565b93506106a2818560208601610642565b6106ab8161066c565b840191505092915050565b60006106c2838361067d565b905092915050565b6000602082019050919050565b60006106e2826105fa565b6106ec8185610605565b9350836020820285016106fe85610616565b8060005b8581101561073a578484038952815161071b85826106b6565b9450610726836106ca565b925060208a01995050600181019050610702565b50829750879550505050505092915050565b6000602082019050818103600083015261076681846106d7565b905092915050565b6000604051905090565b600080fd5b600080fd5b600080fd5b600080fd5b7f4e487b7100000000000000000000000000000000000000000000000000000000600052604160045260246000fd5b6107c48261066c565b810181811067ffffffffffffffff821117156107e3576107e261078c565b5b80604052505050565b60006107f661076e565b905061080282826107bb565b919050565b600067ffffffffffffffff8211156108225761082161078c565b5b61082b8261066c565b9050602081019050919050565b82818337600083830152505050565b600061085a61085584610807565b6107ec565b90508281526020810184848401111561087657610875610787565b5b610881848285610838565b509392505050565b600082601f83011261089e5761089d610782565b5b81356108ae848260208601610847565b91505092915050565b6000602082840312156108cd576108cc610778565b5b600082013567ffffffffffffffff8111156108eb576108ea61077d565b5b6108f784828501610889565b91505092915050565b6000819050919050565b61091381610900565b811461091e57600080fd5b50565b6000813590506109308161090a565b92915050565b6000806040838503121561094d5761094c610778565b5b600061095b85828601610921565b925050602061096c85828601610921565b9150509250929050565b600081519050919050565b600082825260208201905092915050565b6000819050602082019050919050565b6109ab81610900565b82525050565b600060408301600083015184820360008601526109ce828261067d565b91505060208301516109e360208601826109a2565b508091505092915050565b60006109fa83836109b1565b905092915050565b6000602082019050919050565b6000610a1a82610976565b610a248185610981565b935083602082028501610a3685610992565b8060005b85811015610a725784840389528151610a5385826109ee565b9450610a5e83610a02565b925060208a01995050600181019050610a3a565b50829750879550505050505092915050565b60006020820190508181036000830152610a9e8184610a0f565b905092915050565b7f4e487b7100000000000000000000000000000000000000000000000000000000600052602260045260246000fd5b60006002820490506001821680610aed57607f821691505b602082108103610b0057610aff610aa6565b5b50919050565b60008190508160005260206000209050919050565b60006020601f8301049050919050565b600082821b905092915050565b600060088302610b687fffffffffffffffffffffffffffffffffffffffffffffffffffffffffffffffff82610b2b565b610b728683610b2b565b95508019841693508086168417925050509392505050565b6000819050919050565b6000610baf610baa610ba584610900565b610b8a565b610900565b9050919050565b6000819050919050565b610bc983610b94565b610bdd610bd582610bb6565b848454610b38565b825550505050565b600090565b610bf2610be5565b610bfd818484610bc0565b505050565b5b81811015610c2157610c16600082610bea565b600181019050610c03565b5050565b601f821115610c6657610c3781610b06565b610c4084610b1b565b81016020851015610c4f578190505b610c63610c5b85610b1b565b830182610c02565b50505b505050565b600082821c905092915050565b6000610c8960001984600802610c6b565b1980831691505092915050565b6000610ca28383610c78565b9150826002028217905092915050565b610cbb82610626565b67ffffffffffffffff811115610cd457610cd361078c565b5b610cde8254610ad5565b610ce9828285610c25565b600060209050601f831160018114610d1c5760008415610d0a578287015190505b610d148582610c96565b865550610d7c565b601f198416610d2a86610b06565b60005b82811015610d5257848901518255600182019150602085019450602081019050610d2d565b86831015610d6f5784890151610d6b601f891682610c78565b8355505b6001600288020188555050505b505050505050565b7f4e487b7100000000000000000000000000000000000000000000000000000000600052603260045260246000fd5b7f4e487b7100000000000000000000000000000000000000000000000000000000600052601160045260246000fd5b6000610ded82610900565b91507fffffffffffffffffffffffffffffffffffffffffffffffffffffffffffffffff8203610e1f57610e1e610db3565b5b60018201905091905056fea264697066735822122087c384c90b34748a45da55cde36cc254a82c6e77fa07088f04983653be0b2e1664736f6c63430008110033",
  "linkReferences": {},
  "deployedLinkReferences": {}
}